{
  "_format": "hh-sol-artifact-1",
  "contractName": "Election",
  "sourceName": "contracts/Election.sol",
  "abi": [
    {
      "inputs": [],
      "stateMutability": "nonpayable",
      "type": "constructor"
    },
    {
      "anonymous": false,
      "inputs": [
        {
          "indexed": false,
          "internalType": "uint256",
          "name": "partyId",
          "type": "uint256"
        },
        {
          "indexed": false,
          "internalType": "string",
          "name": "partyName",
          "type": "string"
        }
      ],
      "name": "PartyAdded",
      "type": "event"
    },
    {
      "anonymous": false,
      "inputs": [
        {
          "indexed": false,
          "internalType": "uint256",
          "name": "stateId",
          "type": "uint256"
        },
        {
          "indexed": false,
          "internalType": "string",
          "name": "stateName",
          "type": "string"
        }
      ],
      "name": "StateAdded",
      "type": "event"
    },
    {
      "anonymous": false,
      "inputs": [
        {
          "indexed": false,
          "internalType": "uint256",
          "name": "voterId",
          "type": "uint256"
        },
        {
          "indexed": false,
          "internalType": "uint256",
          "name": "stateId",
          "type": "uint256"
        },
        {
          "indexed": false,
          "internalType": "uint256",
          "name": "partyId",
          "type": "uint256"
        }
      ],
      "name": "VoteCast",
      "type": "event"
    },
    {
      "anonymous": false,
      "inputs": [
        {
          "indexed": false,
          "internalType": "uint256",
          "name": "startTime",
          "type": "uint256"
        },
        {
          "indexed": false,
          "internalType": "uint256",
          "name": "endTime",
          "type": "uint256"
        }
      ],
      "name": "VotingTimesSet",
      "type": "event"
    },
    {
      "inputs": [
        {
          "internalType": "string",
          "name": "_name",
          "type": "string"
        },
        {
          "internalType": "string",
          "name": "_symbol",
          "type": "string"
        },
        {
          "internalType": "uint256",
          "name": "_partyId",
          "type": "uint256"
        }
      ],
      "name": "addParty",
      "outputs": [],
      "stateMutability": "nonpayable",
      "type": "function"
    },
    {
      "inputs": [
        {
          "internalType": "string",
          "name": "_stateName",
          "type": "string"
        },
        {
          "internalType": "uint256",
          "name": "_stateId",
          "type": "uint256"
        }
      ],
      "name": "addState",
      "outputs": [],
      "stateMutability": "nonpayable",
      "type": "function"
    },
    {
      "inputs": [
        {
          "internalType": "uint256",
          "name": "_partyId",
          "type": "uint256"
        }
      ],
      "name": "deleteParty",
      "outputs": [],
      "stateMutability": "nonpayable",
      "type": "function"
    },
    {
      "inputs": [
        {
          "internalType": "uint256",
          "name": "_stateId",
          "type": "uint256"
        }
      ],
      "name": "deleteState",
      "outputs": [],
      "stateMutability": "nonpayable",
      "type": "function"
    },
    {
      "inputs": [],
      "name": "getAllData",
      "outputs": [
        {
          "components": [
            {
              "internalType": "string",
              "name": "stateName",
              "type": "string"
            },
            {
              "internalType": "uint256",
              "name": "stateId",
              "type": "uint256"
            }
          ],
          "internalType": "struct Election.State[]",
          "name": "",
          "type": "tuple[]"
        },
        {
          "components": [
            {
              "internalType": "string",
              "name": "partyName",
              "type": "string"
            },
            {
              "internalType": "string",
              "name": "symbol",
              "type": "string"
            },
            {
              "internalType": "uint256",
              "name": "partyId",
              "type": "uint256"
            },
            {
              "internalType": "uint256",
              "name": "totalVoteCount",
              "type": "uint256"
            },
            {
              "components": [
                {
                  "internalType": "uint256",
                  "name": "stateId",
                  "type": "uint256"
                },
                {
                  "internalType": "uint256",
                  "name": "votes",
                  "type": "uint256"
                }
              ],
              "internalType": "struct Election.StateVote[]",
              "name": "stateVotes",
              "type": "tuple[]"
            }
          ],
          "internalType": "struct Election.PartyView[]",
          "name": "",
          "type": "tuple[]"
        },
        {
          "internalType": "uint256",
          "name": "",
          "type": "uint256"
        },
        {
          "internalType": "bool",
          "name": "",
          "type": "bool"
        },
        {
          "internalType": "bool",
          "name": "",
          "type": "bool"
        },
        {
          "internalType": "uint256",
          "name": "",
          "type": "uint256"
        },
        {
          "internalType": "uint256",
          "name": "",
          "type": "uint256"
        }
      ],
      "stateMutability": "view",
      "type": "function"
    },
    {
      "inputs": [],
      "name": "getAllParties",
      "outputs": [
        {
          "components": [
            {
              "internalType": "string",
              "name": "partyName",
              "type": "string"
            },
            {
              "internalType": "string",
              "name": "symbol",
              "type": "string"
            },
            {
              "internalType": "uint256",
              "name": "partyId",
              "type": "uint256"
            },
            {
              "internalType": "uint256",
              "name": "totalVoteCount",
              "type": "uint256"
            },
            {
              "components": [
                {
                  "internalType": "uint256",
                  "name": "stateId",
                  "type": "uint256"
                },
                {
                  "internalType": "uint256",
                  "name": "votes",
                  "type": "uint256"
                }
              ],
              "internalType": "struct Election.StateVote[]",
              "name": "stateVotes",
              "type": "tuple[]"
            }
          ],
          "internalType": "struct Election.PartyView[]",
          "name": "",
          "type": "tuple[]"
        }
      ],
      "stateMutability": "view",
      "type": "function"
    },
    {
      "inputs": [],
      "name": "getAllStates",
      "outputs": [
        {
          "components": [
            {
              "internalType": "string",
              "name": "stateName",
              "type": "string"
            },
            {
              "internalType": "uint256",
              "name": "stateId",
              "type": "uint256"
            }
          ],
          "internalType": "struct Election.State[]",
          "name": "",
          "type": "tuple[]"
        }
      ],
      "stateMutability": "view",
      "type": "function"
    },
    {
      "inputs": [],
      "name": "isVotingActive",
      "outputs": [
        {
          "internalType": "bool",
          "name": "",
          "type": "bool"
        }
      ],
      "stateMutability": "view",
      "type": "function"
    },
    {
      "inputs": [
        {
          "internalType": "uint256",
          "name": "",
          "type": "uint256"
        }
      ],
      "name": "partyIds",
      "outputs": [
        {
          "internalType": "uint256",
          "name": "",
          "type": "uint256"
        }
      ],
      "stateMutability": "view",
      "type": "function"
    },
    {
      "inputs": [],
      "name": "pauseVoting",
      "outputs": [],
      "stateMutability": "nonpayable",
      "type": "function"
    },
    {
      "inputs": [],
      "name": "resumeVoting",
      "outputs": [],
      "stateMutability": "nonpayable",
      "type": "function"
    },
    {
      "inputs": [
        {
          "internalType": "uint256",
          "name": "_startTime",
          "type": "uint256"
        },
        {
          "internalType": "uint256",
          "name": "_endTime",
          "type": "uint256"
        }
      ],
      "name": "setVotingTimes",
      "outputs": [],
      "stateMutability": "nonpayable",
      "type": "function"
    },
    {
      "inputs": [
        {
          "internalType": "uint256",
          "name": "",
          "type": "uint256"
        }
      ],
      "name": "stateIds",
      "outputs": [
        {
          "internalType": "uint256",
          "name": "",
          "type": "uint256"
        }
      ],
      "stateMutability": "view",
      "type": "function"
    },
    {
      "inputs": [
        {
          "internalType": "uint256",
          "name": "",
          "type": "uint256"
        }
      ],
      "name": "states",
      "outputs": [
        {
          "internalType": "string",
          "name": "stateName",
          "type": "string"
        },
        {
          "internalType": "uint256",
          "name": "stateId",
          "type": "uint256"
        }
      ],
      "stateMutability": "view",
      "type": "function"
    },
    {
      "inputs": [],
      "name": "timeData",
      "outputs": [
        {
          "internalType": "bool",
          "name": "",
          "type": "bool"
        },
        {
          "internalType": "uint256",
          "name": "",
          "type": "uint256"
        },
        {
          "internalType": "uint256",
          "name": "",
          "type": "uint256"
        }
      ],
      "stateMutability": "view",
      "type": "function"
    },
    {
      "inputs": [],
      "name": "totalVotes",
      "outputs": [
        {
          "internalType": "uint256",
          "name": "",
          "type": "uint256"
        }
      ],
      "stateMutability": "view",
      "type": "function"
    },
    {
      "inputs": [
        {
          "internalType": "address",
          "name": "newOwner",
          "type": "address"
        }
      ],
      "name": "transferOwnership",
      "outputs": [],
      "stateMutability": "nonpayable",
      "type": "function"
    },
    {
      "inputs": [
        {
          "internalType": "uint256",
          "name": "_voterId",
          "type": "uint256"
        },
        {
          "internalType": "uint256",
          "name": "_voterState",
          "type": "uint256"
        },
        {
          "internalType": "uint256",
          "name": "_votedPartyId",
          "type": "uint256"
        }
      ],
      "name": "vote",
      "outputs": [],
      "stateMutability": "nonpayable",
      "type": "function"
    },
    {
      "inputs": [
        {
          "internalType": "uint256",
          "name": "",
          "type": "uint256"
        }
      ],
      "name": "voters",
      "outputs": [
        {
          "internalType": "bool",
          "name": "",
          "type": "bool"
        }
      ],
      "stateMutability": "view",
      "type": "function"
    },
    {
      "inputs": [],
      "name": "votingEndTime",
      "outputs": [
        {
          "internalType": "uint256",
          "name": "",
          "type": "uint256"
        }
      ],
      "stateMutability": "view",
      "type": "function"
    },
    {
      "inputs": [],
      "name": "votingPaused",
      "outputs": [
        {
          "internalType": "bool",
          "name": "",
          "type": "bool"
        }
      ],
      "stateMutability": "view",
      "type": "function"
    },
    {
      "inputs": [],
      "name": "votingStartTime",
      "outputs": [
        {
          "internalType": "uint256",
          "name": "",
          "type": "uint256"
        }
      ],
      "stateMutability": "view",
      "type": "function"
    }
  ],
  "bytecode": "0x6080604052348015600f57600080fd5b50336000806101000a81548173ffffffffffffffffffffffffffffffffffffffff021916908373ffffffffffffffffffffffffffffffffffffffff160217905550612ce78061005f6000396000f3fe608060405234801561001057600080fd5b50600436106101425760003560e01c806376290dd2116100b8578063a4ddb0711161007c578063a4ddb07114610346578063ae66c9ea14610364578063b867bfcc14610382578063da58c7d9146103a0578063f2fde38b146103d0578063f3cdcd1e146103ec57610142565b806376290dd2146102c85780637afdf93e146102e45780637d2e629e146102ee5780638a6655d61461030a578063a0e439591461032657610142565b8063257da3ef1161010a578063257da3ef146101ee5780632d10fa281461021e57806337eb39061461024257806347cf6f761461025e5780634f6c90cf1461027c5780635c060b79146102ac57610142565b8063017a9105146101475780630d15fd77146101785780630fc49ddd146101965780631ea736e0146101b25780632019a608146101d0575b600080fd5b610161600480360381019061015c919061199d565b6103f6565b60405161016f929190611a69565b60405180910390f35b6101806104a2565b60405161018d9190611a99565b60405180910390f35b6101b060048036038101906101ab919061199d565b6104a8565b005b6101ba6105ef565b6040516101c79190611a99565b60405180910390f35b6101d86105f5565b6040516101e59190611a99565b60405180910390f35b6102086004803603810190610203919061199d565b6105fb565b6040516102159190611a99565b60405180910390f35b61022661061f565b6040516102399796959493929190611e4b565b60405180910390f35b61025c6004803603810190610257919061199d565b610672565b005b610266610808565b6040516102739190611ec8565b60405180910390f35b6102966004803603810190610291919061199d565b610823565b6040516102a39190611a99565b60405180910390f35b6102c660048036038101906102c19190612018565b610847565b005b6102e260048036038101906102dd9190612074565b6109df565b005b6102ec610bb8565b005b610308600480360381019061030391906120ff565b610cb2565b005b610324600480360381019061031f919061213f565b610e0f565b005b61032e6110b2565b60405161033d93929190612192565b60405180910390f35b61034e6110d0565b60405161035b91906121c9565b60405180910390f35b61036c6110df565b6040516103799190611ec8565b60405180910390f35b61038a6110f2565b60405161039791906121eb565b60405180910390f35b6103ba60048036038101906103b5919061199d565b611101565b6040516103c79190611ec8565b60405180910390f35b6103ea60048036038101906103e5919061226b565b611121565b005b6103f46111f2565b005b6008602052806000526040600020600091509050806000018054610419906122c7565b80601f0160208091040260200160405190810160405280929190818152602001828054610445906122c7565b80156104925780601f1061046757610100808354040283529160200191610492565b820191906000526020600020905b81548152906001019060200180831161047557829003601f168201915b5050505050908060010154905082565b60035481565b60008054906101000a900473ffffffffffffffffffffffffffffffffffffffff1673ffffffffffffffffffffffffffffffffffffffff163373ffffffffffffffffffffffffffffffffffffffff1614610536576040517f08c379a000000000000000000000000000000000000000000000000000000000815260040161052d90612344565b60405180910390fd5b6000600760008381526020019081526020016000206000018054610559906122c7565b90500361059b576040517f08c379a0000000000000000000000000000000000000000000000000000000008152600401610592906123b0565b60405180910390fd5b6105a6600582611334565b60076000828152602001908152602001600020600080820160006105ca9190611893565b6001820160006105da9190611893565b60028201600090556003820160009055505050565b60025481565b60015481565b6006818154811061060b57600080fd5b906000526020600020016000915090505481565b60608060008060008060006106326113f4565b61063a61156e565b600354600460009054906101000a900460ff16610655610808565b600154600254965096509650965096509650965090919293949596565b60008054906101000a900473ffffffffffffffffffffffffffffffffffffffff1673ffffffffffffffffffffffffffffffffffffffff163373ffffffffffffffffffffffffffffffffffffffff1614610700576040517f08c379a00000000000000000000000000000000000000000000000000000000081526004016106f790612344565b60405180910390fd5b6000600860008381526020019081526020016000206000018054610723906122c7565b905003610765576040517f08c379a000000000000000000000000000000000000000000000000000000000815260040161075c9061241c565b60405180910390fd5b610770600682611334565b60005b6005805490508110156107d65760076000600583815481106107985761079761243c565b5b906000526020600020015481526020019081526020016000206004016000838152602001908152602001600020600090558080600101915050610773565b5060086000828152602001908152602001600020600080820160006107fb9190611893565b6001820160009055505050565b6000600154421015801561081e57506002544211155b905090565b6005818154811061083357600080fd5b906000526020600020016000915090505481565b60008054906101000a900473ffffffffffffffffffffffffffffffffffffffff1673ffffffffffffffffffffffffffffffffffffffff163373ffffffffffffffffffffffffffffffffffffffff16146108d5576040517f08c379a00000000000000000000000000000000000000000000000000000000081526004016108cc90612344565b60405180910390fd5b60006008600083815260200190815260200160002060000180546108f8906122c7565b90501461093a576040517f08c379a0000000000000000000000000000000000000000000000000000000008152600401610931906124b7565b60405180910390fd5b8160086000838152602001908152602001600020600001908161095d9190612683565b5080600860008381526020019081526020016000206001018190555060068190806001815401808255809150506001900390600052602060002001600090919091909150557faadc2cb898f9a2188d51488b9e24dfa12e85a315c886710a0d2b326f0b06d8cf81836040516109d3929190612755565b60405180910390a15050565b60008054906101000a900473ffffffffffffffffffffffffffffffffffffffff1673ffffffffffffffffffffffffffffffffffffffff163373ffffffffffffffffffffffffffffffffffffffff1614610a6d576040517f08c379a0000000000000000000000000000000000000000000000000000000008152600401610a6490612344565b60405180910390fd5b6000600760008381526020019081526020016000206000018054610a90906122c7565b905014610ad2576040517f08c379a0000000000000000000000000000000000000000000000000000000008152600401610ac9906127d1565b60405180910390fd5b82600760008381526020019081526020016000206000019081610af59190612683565b5081600760008381526020019081526020016000206001019081610b199190612683565b508060076000838152602001908152602001600020600201819055506000600760008381526020019081526020016000206003018190555060058190806001815401808255809150506001900390600052602060002001600090919091909150557f54e9cb5ebe49e5aa1476cef7c5abac9af1cffc245b2a6403e531976361e3d59a8184604051610bab929190612755565b60405180910390a1505050565b60008054906101000a900473ffffffffffffffffffffffffffffffffffffffff1673ffffffffffffffffffffffffffffffffffffffff163373ffffffffffffffffffffffffffffffffffffffff1614610c46576040517f08c379a0000000000000000000000000000000000000000000000000000000008152600401610c3d90612344565b60405180910390fd5b600460009054906101000a900460ff16610c95576040517f08c379a0000000000000000000000000000000000000000000000000000000008152600401610c8c9061283d565b60405180910390fd5b6000600460006101000a81548160ff021916908315150217905550565b60008054906101000a900473ffffffffffffffffffffffffffffffffffffffff1673ffffffffffffffffffffffffffffffffffffffff163373ffffffffffffffffffffffffffffffffffffffff1614610d40576040517f08c379a0000000000000000000000000000000000000000000000000000000008152600401610d3790612344565b60405180910390fd5b428211610d82576040517f08c379a0000000000000000000000000000000000000000000000000000000008152600401610d79906128a9565b60405180910390fd5b818111610dc4576040517f08c379a0000000000000000000000000000000000000000000000000000000008152600401610dbb9061293b565b60405180910390fd5b81600181905550806002819055507f9160758ad24f87673a8c4eebb5b93702ffbcd3115c965f0e772f5a9922247f808282604051610e0392919061295b565b60405180910390a15050565b600460009054906101000a900460ff1615610e5f576040517f08c379a0000000000000000000000000000000000000000000000000000000008152600401610e56906129d0565b60405180910390fd5b610e67610808565b610ea6576040517f08c379a0000000000000000000000000000000000000000000000000000000008152600401610e9d90612a3c565b60405180910390fd5b6009600084815260200190815260200160002060009054906101000a900460ff1615610f07576040517f08c379a0000000000000000000000000000000000000000000000000000000008152600401610efe90612aa8565b60405180910390fd5b6000600760008381526020019081526020016000206000018054610f2a906122c7565b905003610f6c576040517f08c379a0000000000000000000000000000000000000000000000000000000008152600401610f63906123b0565b60405180910390fd5b6000600860008481526020019081526020016000206000018054610f8f906122c7565b905003610fd1576040517f08c379a0000000000000000000000000000000000000000000000000000000008152600401610fc89061241c565b60405180910390fd5b6000600760008381526020019081526020016000209050806003016000815480929190610ffd90612af7565b9190505550806004016000848152602001908152602001600020600081548092919061102890612af7565b91905055506003600081548092919061104090612af7565b919050555060016009600086815260200190815260200160002060006101000a81548160ff0219169083151502179055507f24930ecca7f60d4736cd965cb5522694ea4b32308405d3f88fea2f59eff63caa8484846040516110a493929190612b3f565b60405180910390a150505050565b60008060006110bf610808565b600154600254925092509250909192565b60606110da6113f4565b905090565b600460009054906101000a900460ff1681565b60606110fc61156e565b905090565b60096020528060005260406000206000915054906101000a900460ff1681565b60008054906101000a900473ffffffffffffffffffffffffffffffffffffffff1673ffffffffffffffffffffffffffffffffffffffff163373ffffffffffffffffffffffffffffffffffffffff16146111af576040517f08c379a00000000000000000000000000000000000000000000000000000000081526004016111a690612344565b60405180910390fd5b806000806101000a81548173ffffffffffffffffffffffffffffffffffffffff021916908373ffffffffffffffffffffffffffffffffffffffff16021790555050565b60008054906101000a900473ffffffffffffffffffffffffffffffffffffffff1673ffffffffffffffffffffffffffffffffffffffff163373ffffffffffffffffffffffffffffffffffffffff1614611280576040517f08c379a000000000000000000000000000000000000000000000000000000000815260040161127790612344565b60405180910390fd5b600460009054906101000a900460ff16156112d0576040517f08c379a00000000000000000000000000000000000000000000000000000000081526004016112c790612bc2565b60405180910390fd5b6112d8610808565b611317576040517f08c379a000000000000000000000000000000000000000000000000000000000815260040161130e90612c2e565b60405180910390fd5b6001600460006101000a81548160ff021916908315150217905550565b60005b82805490508110156113ef57818382815481106113575761135661243c565b5b9060005260206000200154036113e25782600184805490506113799190612c4e565b8154811061138a5761138961243c565b5b90600052602060002001548382815481106113a8576113a761243c565b5b9060005260206000200181905550828054806113c7576113c6612c82565b5b600190038181906000526020600020016000905590556113ef565b8080600101915050611337565b505050565b6060600060068054905067ffffffffffffffff81111561141757611416611eed565b5b60405190808252806020026020018201604052801561145057816020015b61143d6118d3565b8152602001906001900390816114355790505b50905060005b60068054905081101561156657600860006006838154811061147b5761147a61243c565b5b906000526020600020015481526020019081526020016000206040518060400160405290816000820180546114af906122c7565b80601f01602080910402602001604051908101604052809291908181526020018280546114db906122c7565b80156115285780601f106114fd57610100808354040283529160200191611528565b820191906000526020600020905b81548152906001019060200180831161150b57829003601f168201915b5050505050815260200160018201548152505082828151811061154e5761154d61243c565b5b60200260200101819052508080600101915050611456565b508091505090565b6060600060058054905067ffffffffffffffff81111561159157611590611eed565b5b6040519080825280602002602001820160405280156115ca57816020015b6115b76118ed565b8152602001906001900390816115af5790505b50905060005b60058054905081101561188b576000600582815481106115f3576115f261243c565b5b906000526020600020015490506000600760008381526020019081526020016000209050600060068054905067ffffffffffffffff81111561163857611637611eed565b5b60405190808252806020026020018201604052801561167157816020015b61165e61191c565b8152602001906001900390816116565790505b50905060005b600680549050811015611715576040518060400160405280600683815481106116a3576116a261243c565b5b90600052602060002001548152602001846004016000600685815481106116cd576116cc61243c565b5b90600052602060002001548152602001908152602001600020548152508282815181106116fd576116fc61243c565b5b60200260200101819052508080600101915050611677565b506040518060a00160405280836000018054611730906122c7565b80601f016020809104026020016040519081016040528092919081815260200182805461175c906122c7565b80156117a95780601f1061177e576101008083540402835291602001916117a9565b820191906000526020600020905b81548152906001019060200180831161178c57829003601f168201915b505050505081526020018360010180546117c2906122c7565b80601f01602080910402602001604051908101604052809291908181526020018280546117ee906122c7565b801561183b5780601f106118105761010080835404028352916020019161183b565b820191906000526020600020905b81548152906001019060200180831161181e57829003601f168201915b505050505081526020018360020154815260200183600301548152602001828152508585815181106118705761186f61243c565b5b602002602001018190525050505080806001019150506115d0565b508091505090565b50805461189f906122c7565b6000825580601f106118b157506118d0565b601f0160209004906000526020600020908101906118cf9190611936565b5b50565b604051806040016040528060608152602001600081525090565b6040518060a0016040528060608152602001606081526020016000815260200160008152602001606081525090565b604051806040016040528060008152602001600081525090565b5b8082111561194f576000816000905550600101611937565b5090565b6000604051905090565b600080fd5b600080fd5b6000819050919050565b61197a81611967565b811461198557600080fd5b50565b60008135905061199781611971565b92915050565b6000602082840312156119b3576119b261195d565b5b60006119c184828501611988565b91505092915050565b600081519050919050565b600082825260208201905092915050565b60005b83811015611a045780820151818401526020810190506119e9565b60008484015250505050565b6000601f19601f8301169050919050565b6000611a2c826119ca565b611a3681856119d5565b9350611a468185602086016119e6565b611a4f81611a10565b840191505092915050565b611a6381611967565b82525050565b60006040820190508181036000830152611a838185611a21565b9050611a926020830184611a5a565b9392505050565b6000602082019050611aae6000830184611a5a565b92915050565b600081519050919050565b600082825260208201905092915050565b6000819050602082019050919050565b600082825260208201905092915050565b6000611afc826119ca565b611b068185611ae0565b9350611b168185602086016119e6565b611b1f81611a10565b840191505092915050565b611b3381611967565b82525050565b60006040830160008301518482036000860152611b568282611af1565b9150506020830151611b6b6020860182611b2a565b508091505092915050565b6000611b828383611b39565b905092915050565b6000602082019050919050565b6000611ba282611ab4565b611bac8185611abf565b935083602082028501611bbe85611ad0565b8060005b85811015611bfa5784840389528151611bdb8582611b76565b9450611be683611b8a565b925060208a01995050600181019050611bc2565b50829750879550505050505092915050565b600081519050919050565b600082825260208201905092915050565b6000819050602082019050919050565b600081519050919050565b600082825260208201905092915050565b6000819050602082019050919050565b604082016000820151611c7a6000850182611b2a565b506020820151611c8d6020850182611b2a565b50505050565b6000611c9f8383611c64565b60408301905092915050565b6000602082019050919050565b6000611cc382611c38565b611ccd8185611c43565b9350611cd883611c54565b8060005b83811015611d09578151611cf08882611c93565b9750611cfb83611cab565b925050600181019050611cdc565b5085935050505092915050565b600060a0830160008301518482036000860152611d338282611af1565b91505060208301518482036020860152611d4d8282611af1565b9150506040830151611d626040860182611b2a565b506060830151611d756060860182611b2a565b5060808301518482036080860152611d8d8282611cb8565b9150508091505092915050565b6000611da68383611d16565b905092915050565b6000602082019050919050565b6000611dc682611c0c565b611dd08185611c17565b935083602082028501611de285611c28565b8060005b85811015611e1e5784840389528151611dff8582611d9a565b9450611e0a83611dae565b925060208a01995050600181019050611de6565b50829750879550505050505092915050565b60008115159050919050565b611e4581611e30565b82525050565b600060e0820190508181036000830152611e65818a611b97565b90508181036020830152611e798189611dbb565b9050611e886040830188611a5a565b611e956060830187611e3c565b611ea26080830186611e3c565b611eaf60a0830185611a5a565b611ebc60c0830184611a5a565b98975050505050505050565b6000602082019050611edd6000830184611e3c565b92915050565b600080fd5b600080fd5b7f4e487b7100000000000000000000000000000000000000000000000000000000600052604160045260246000fd5b611f2582611a10565b810181811067ffffffffffffffff82111715611f4457611f43611eed565b5b80604052505050565b6000611f57611953565b9050611f638282611f1c565b919050565b600067ffffffffffffffff821115611f8357611f82611eed565b5b611f8c82611a10565b9050602081019050919050565b82818337600083830152505050565b6000611fbb611fb684611f68565b611f4d565b905082815260208101848484011115611fd757611fd6611ee8565b5b611fe2848285611f99565b509392505050565b600082601f830112611fff57611ffe611ee3565b5b813561200f848260208601611fa8565b91505092915050565b6000806040838503121561202f5761202e61195d565b5b600083013567ffffffffffffffff81111561204d5761204c611962565b5b61205985828601611fea565b925050602061206a85828601611988565b9150509250929050565b60008060006060848603121561208d5761208c61195d565b5b600084013567ffffffffffffffff8111156120ab576120aa611962565b5b6120b786828701611fea565b935050602084013567ffffffffffffffff8111156120d8576120d7611962565b5b6120e486828701611fea565b92505060406120f586828701611988565b9150509250925092565b600080604083850312156121165761211561195d565b5b600061212485828601611988565b925050602061213585828601611988565b9150509250929050565b6000806000606084860312156121585761215761195d565b5b600061216686828701611988565b935050602061217786828701611988565b925050604061218886828701611988565b9150509250925092565b60006060820190506121a76000830186611e3c565b6121b46020830185611a5a565b6121c16040830184611a5a565b949350505050565b600060208201905081810360008301526121e38184611b97565b905092915050565b600060208201905081810360008301526122058184611dbb565b905092915050565b600073ffffffffffffffffffffffffffffffffffffffff82169050919050565b60006122388261220d565b9050919050565b6122488161222d565b811461225357600080fd5b50565b6000813590506122658161223f565b92915050565b6000602082840312156122815761228061195d565b5b600061228f84828501612256565b91505092915050565b7f4e487b7100000000000000000000000000000000000000000000000000000000600052602260045260246000fd5b600060028204905060018216806122df57607f821691505b6020821081036122f2576122f1612298565b5b50919050565b7f4e6f7420617574686f72697a6564000000000000000000000000000000000000600082015250565b600061232e600e836119d5565b9150612339826122f8565b602082019050919050565b6000602082019050818103600083015261235d81612321565b9050919050565b7f506172747920646f6573206e6f74206578697374000000000000000000000000600082015250565b600061239a6014836119d5565b91506123a582612364565b602082019050919050565b600060208201905081810360008301526123c98161238d565b9050919050565b7f537461746520646f6573206e6f74206578697374000000000000000000000000600082015250565b60006124066014836119d5565b9150612411826123d0565b602082019050919050565b60006020820190508181036000830152612435816123f9565b9050919050565b7f4e487b7100000000000000000000000000000000000000000000000000000000600052603260045260246000fd5b7f5374617465204944206578697374730000000000000000000000000000000000600082015250565b60006124a1600f836119d5565b91506124ac8261246b565b602082019050919050565b600060208201905081810360008301526124d081612494565b9050919050565b60008190508160005260206000209050919050565b60006020601f8301049050919050565b600082821b905092915050565b6000600883026125397fffffffffffffffffffffffffffffffffffffffffffffffffffffffffffffffff826124fc565b61254386836124fc565b95508019841693508086168417925050509392505050565b6000819050919050565b600061258061257b61257684611967565b61255b565b611967565b9050919050565b6000819050919050565b61259a83612565565b6125ae6125a682612587565b848454612509565b825550505050565b600090565b6125c36125b6565b6125ce818484612591565b505050565b5b818110156125f2576125e76000826125bb565b6001810190506125d4565b5050565b601f82111561263757612608816124d7565b612611846124ec565b81016020851015612620578190505b61263461262c856124ec565b8301826125d3565b50505b505050565b600082821c905092915050565b600061265a6000198460080261263c565b1980831691505092915050565b60006126738383612649565b9150826002028217905092915050565b61268c826119ca565b67ffffffffffffffff8111156126a5576126a4611eed565b5b6126af82546122c7565b6126ba8282856125f6565b600060209050601f8311600181146126ed57600084156126db578287015190505b6126e58582612667565b86555061274d565b601f1984166126fb866124d7565b60005b82811015612723578489015182556001820191506020850194506020810190506126fe565b86831015612740578489015161273c601f891682612649565b8355505b6001600288020188555050505b505050505050565b600060408201905061276a6000830185611a5a565b818103602083015261277c8184611a21565b90509392505050565b7f5061727479204944206578697374730000000000000000000000000000000000600082015250565b60006127bb600f836119d5565b91506127c682612785565b602082019050919050565b600060208201905081810360008301526127ea816127ae565b9050919050565b7f4e6f742070617573656400000000000000000000000000000000000000000000600082015250565b6000612827600a836119d5565b9150612832826127f1565b602082019050919050565b600060208201905081810360008301526128568161281a565b9050919050565b7f53746172742074696d65206d75737420626520696e2066757475726500000000600082015250565b6000612893601c836119d5565b915061289e8261285d565b602082019050919050565b600060208201905081810360008301526128c281612886565b9050919050565b7f456e642074696d65206d7573742062652061667465722073746172742074696d60008201527f6500000000000000000000000000000000000000000000000000000000000000602082015250565b60006129256021836119d5565b9150612930826128c9565b604082019050919050565b6000602082019050818103600083015261295481612918565b9050919050565b60006040820190506129706000830185611a5a565b61297d6020830184611a5a565b9392505050565b7f566f74696e672070617573656400000000000000000000000000000000000000600082015250565b60006129ba600d836119d5565b91506129c582612984565b602082019050919050565b600060208201905081810360008301526129e9816129ad565b9050919050565b7f4f75747369646520766f74696e6720706572696f640000000000000000000000600082015250565b6000612a266015836119d5565b9150612a31826129f0565b602082019050919050565b60006020820190508181036000830152612a5581612a19565b9050919050565b7f596f75206861766520616c726561647920766f74656400000000000000000000600082015250565b6000612a926016836119d5565b9150612a9d82612a5c565b602082019050919050565b60006020820190508181036000830152612ac181612a85565b9050919050565b7f4e487b7100000000000000000000000000000000000000000000000000000000600052601160045260246000fd5b6000612b0282611967565b91507fffffffffffffffffffffffffffffffffffffffffffffffffffffffffffffffff8203612b3457612b33612ac8565b5b600182019050919050565b6000606082019050612b546000830186611a5a565b612b616020830185611a5a565b612b6e6040830184611a5a565b949350505050565b7f416c726561647920706175736564000000000000000000000000000000000000600082015250565b6000612bac600e836119d5565b9150612bb782612b76565b602082019050919050565b60006020820190508181036000830152612bdb81612b9f565b9050919050565b7f4e6f2061637469766520766f74696e6720746f20706175736500000000000000600082015250565b6000612c186019836119d5565b9150612c2382612be2565b602082019050919050565b60006020820190508181036000830152612c4781612c0b565b9050919050565b6000612c5982611967565b9150612c6483611967565b9250828203905081811115612c7c57612c7b612ac8565b5b92915050565b7f4e487b7100000000000000000000000000000000000000000000000000000000600052603160045260246000fdfea26469706673582212204317322df9e9fd09bf6a522efc2b9979e46c259cf76042e2e0f47c37be40242864736f6c634300081c0033",
  "linkReferences": {},
  "deployedLinkReferences": {}
}