{
    "_format": "hh-sol-artifact-1",
    "contractName": "Election",
    "sourceName": "contracts/election.sol",
    "abi": [
        {
            "inputs": [],
            "stateMutability": "nonpayable",
            "type": "constructor"
        },
        {
            "anonymous": false,
            "inputs": [
                {
                    "indexed": true,
                    "internalType": "uint256",
                    "name": "partyId",
                    "type": "uint256"
                },
                {
                    "indexed": false,
                    "internalType": "string",
                    "name": "partyName",
                    "type": "string"
                }
            ],
            "name": "PartyAdded",
            "type": "event"
        },
        {
            "anonymous": false,
            "inputs": [
                {
                    "indexed": false,
                    "internalType": "string",
                    "name": "state",
                    "type": "string"
                },
                {
                    "indexed": false,
                    "internalType": "string",
                    "name": "party",
                    "type": "string"
                },
                {
                    "indexed": false,
                    "internalType": "string",
                    "name": "repName",
                    "type": "string"
                }
            ],
            "name": "RepresentativeAssigned",
            "type": "event"
        },
        {
            "anonymous": false,
            "inputs": [
                {
                    "indexed": true,
                    "internalType": "uint256",
                    "name": "stateId",
                    "type": "uint256"
                },
                {
                    "indexed": false,
                    "internalType": "string",
                    "name": "stateName",
                    "type": "string"
                }
            ],
            "name": "StateAdded",
            "type": "event"
        },
        {
            "anonymous": false,
            "inputs": [
                {
                    "indexed": true,
                    "internalType": "uint256",
                    "name": "voterId",
                    "type": "uint256"
                },
                {
                    "indexed": true,
                    "internalType": "uint256",
                    "name": "stateId",
                    "type": "uint256"
                },
                {
                    "indexed": true,
                    "internalType": "uint256",
                    "name": "partyId",
                    "type": "uint256"
                }
            ],
            "name": "VoteCast",
            "type": "event"
        },
        {
            "anonymous": false,
            "inputs": [
                {
                    "indexed": false,
                    "internalType": "uint256",
                    "name": "startTime",
                    "type": "uint256"
                },
                {
                    "indexed": false,
                    "internalType": "uint256",
                    "name": "endTime",
                    "type": "uint256"
                }
            ],
            "name": "VotingTimesSet",
            "type": "event"
        },
        {
            "inputs": [
                {
                    "internalType": "string",
                    "name": "_name",
                    "type": "string"
                },
                {
                    "internalType": "string",
                    "name": "_symbol",
                    "type": "string"
                },
                {
                    "internalType": "uint256",
                    "name": "_partyId",
                    "type": "uint256"
                }
            ],
            "name": "addParty",
            "outputs": [],
            "stateMutability": "nonpayable",
            "type": "function"
        },
        {
            "inputs": [
                {
                    "internalType": "string",
                    "name": "_stateName",
                    "type": "string"
                },
                {
                    "internalType": "uint256",
                    "name": "_stateId",
                    "type": "uint256"
                }
            ],
            "name": "addState",
            "outputs": [],
            "stateMutability": "nonpayable",
            "type": "function"
        },
        {
            "inputs": [
                {
                    "internalType": "string",
                    "name": "_repName",
                    "type": "string"
                },
                {
                    "internalType": "string",
                    "name": "_photo",
                    "type": "string"
                },
                {
                    "internalType": "uint256",
                    "name": "_partyId",
                    "type": "uint256"
                },
                {
                    "internalType": "uint256",
                    "name": "_stateId",
                    "type": "uint256"
                }
            ],
            "name": "assignRepresentative",
            "outputs": [],
            "stateMutability": "nonpayable",
            "type": "function"
        },
        {
            "inputs": [],
            "name": "countdownToStart",
            "outputs": [
                {
                    "internalType": "uint256",
                    "name": "",
                    "type": "uint256"
                }
            ],
            "stateMutability": "view",
            "type": "function"
        },
        {
            "inputs": [
                {
                    "internalType": "uint256",
                    "name": "partyId",
                    "type": "uint256"
                }
            ],
            "name": "delateParty",
            "outputs": [],
            "stateMutability": "nonpayable",
            "type": "function"
        },
        {
            "inputs": [
                {
                    "internalType": "uint256",
                    "name": "stateId",
                    "type": "uint256"
                },
                {
                    "internalType": "uint256",
                    "name": "partyId",
                    "type": "uint256"
                }
            ],
            "name": "delateRep",
            "outputs": [],
            "stateMutability": "nonpayable",
            "type": "function"
        },
        {
            "inputs": [
                {
                    "internalType": "uint256",
                    "name": "stateId",
                    "type": "uint256"
                }
            ],
            "name": "delateState",
            "outputs": [],
            "stateMutability": "nonpayable",
            "type": "function"
        },
        {
            "inputs": [],
            "name": "isVotingOpen",
            "outputs": [
                {
                    "internalType": "bool",
                    "name": "",
                    "type": "bool"
                }
            ],
            "stateMutability": "view",
            "type": "function"
        },
        {
            "inputs": [
                {
                    "internalType": "uint256",
                    "name": "",
                    "type": "uint256"
                }
            ],
            "name": "parties",
            "outputs": [
                {
                    "internalType": "string",
                    "name": "partyName",
                    "type": "string"
                },
                {
                    "internalType": "string",
                    "name": "symbol",
                    "type": "string"
                },
                {
                    "internalType": "uint256",
                    "name": "partyId",
                    "type": "uint256"
                },
                {
                    "internalType": "uint256",
                    "name": "voteCount",
                    "type": "uint256"
                }
            ],
            "stateMutability": "view",
            "type": "function"
        },
        {
            "inputs": [],
            "name": "partiesList",
            "outputs": [
                {
                    "components": [
                        {
                            "internalType": "string",
                            "name": "partyName",
                            "type": "string"
                        },
                        {
                            "internalType": "string",
                            "name": "symbol",
                            "type": "string"
                        },
                        {
                            "internalType": "uint256",
                            "name": "partyId",
                            "type": "uint256"
                        },
                        {
                            "internalType": "uint256",
                            "name": "voteCount",
                            "type": "uint256"
                        }
                    ],
                    "internalType": "struct Election.Party[]",
                    "name": "",
                    "type": "tuple[]"
                }
            ],
            "stateMutability": "view",
            "type": "function"
        },
        {
            "inputs": [
                {
                    "internalType": "uint256",
                    "name": "",
                    "type": "uint256"
                }
            ],
            "name": "partyIds",
            "outputs": [
                {
                    "internalType": "uint256",
                    "name": "",
                    "type": "uint256"
                }
            ],
            "stateMutability": "view",
            "type": "function"
        },
        {
            "inputs": [
                {
                    "internalType": "uint256",
                    "name": "",
                    "type": "uint256"
                },
                {
                    "internalType": "uint256",
                    "name": "",
                    "type": "uint256"
                }
            ],
            "name": "partyIdsInState",
            "outputs": [
                {
                    "internalType": "uint256",
                    "name": "",
                    "type": "uint256"
                }
            ],
            "stateMutability": "view",
            "type": "function"
        },
        {
            "inputs": [],
            "name": "repList",
            "outputs": [
                {
                    "components": [
                        {
                            "internalType": "string",
                            "name": "name",
                            "type": "string"
                        },
                        {
                            "internalType": "string",
                            "name": "photo",
                            "type": "string"
                        },
                        {
                            "components": [
                                {
                                    "internalType": "string",
                                    "name": "partyName",
                                    "type": "string"
                                },
                                {
                                    "internalType": "string",
                                    "name": "symbol",
                                    "type": "string"
                                },
                                {
                                    "internalType": "uint256",
                                    "name": "partyId",
                                    "type": "uint256"
                                },
                                {
                                    "internalType": "uint256",
                                    "name": "voteCount",
                                    "type": "uint256"
                                }
                            ],
                            "internalType": "struct Election.Party",
                            "name": "party",
                            "type": "tuple"
                        },
                        {
                            "components": [
                                {
                                    "internalType": "string",
                                    "name": "stateName",
                                    "type": "string"
                                },
                                {
                                    "internalType": "uint256",
                                    "name": "stateId",
                                    "type": "uint256"
                                }
                            ],
                            "internalType": "struct Election.State",
                            "name": "state",
                            "type": "tuple"
                        },
                        {
                            "internalType": "uint256",
                            "name": "votecount",
                            "type": "uint256"
                        }
                    ],
                    "internalType": "struct Election.Representative[]",
                    "name": "",
                    "type": "tuple[]"
                }
            ],
            "stateMutability": "view",
            "type": "function"
        },
        {
            "inputs": [
                {
                    "internalType": "uint256",
                    "name": "",
                    "type": "uint256"
                }
            ],
            "name": "repStateIds",
            "outputs": [
                {
                    "internalType": "uint256",
                    "name": "",
                    "type": "uint256"
                }
            ],
            "stateMutability": "view",
            "type": "function"
        },
        {
            "inputs": [
                {
                    "internalType": "uint256",
                    "name": "_startTime",
                    "type": "uint256"
                },
                {
                    "internalType": "uint256",
                    "name": "_endTime",
                    "type": "uint256"
                }
            ],
            "name": "setTime",
            "outputs": [],
            "stateMutability": "nonpayable",
            "type": "function"
        },
        {
            "inputs": [
                {
                    "internalType": "uint256",
                    "name": "",
                    "type": "uint256"
                }
            ],
            "name": "stateIds",
            "outputs": [
                {
                    "internalType": "uint256",
                    "name": "",
                    "type": "uint256"
                }
            ],
            "stateMutability": "view",
            "type": "function"
        },
        {
            "inputs": [
                {
                    "internalType": "uint256",
                    "name": "",
                    "type": "uint256"
                },
                {
                    "internalType": "uint256",
                    "name": "",
                    "type": "uint256"
                }
            ],
            "name": "statePartyRepresentatives",
            "outputs": [
                {
                    "internalType": "string",
                    "name": "name",
                    "type": "string"
                },
                {
                    "internalType": "string",
                    "name": "photo",
                    "type": "string"
                },
                {
                    "components": [
                        {
                            "internalType": "string",
                            "name": "partyName",
                            "type": "string"
                        },
                        {
                            "internalType": "string",
                            "name": "symbol",
                            "type": "string"
                        },
                        {
                            "internalType": "uint256",
                            "name": "partyId",
                            "type": "uint256"
                        },
                        {
                            "internalType": "uint256",
                            "name": "voteCount",
                            "type": "uint256"
                        }
                    ],
                    "internalType": "struct Election.Party",
                    "name": "party",
                    "type": "tuple"
                },
                {
                    "components": [
                        {
                            "internalType": "string",
                            "name": "stateName",
                            "type": "string"
                        },
                        {
                            "internalType": "uint256",
                            "name": "stateId",
                            "type": "uint256"
                        }
                    ],
                    "internalType": "struct Election.State",
                    "name": "state",
                    "type": "tuple"
                },
                {
                    "internalType": "uint256",
                    "name": "votecount",
                    "type": "uint256"
                }
            ],
            "stateMutability": "view",
            "type": "function"
        },
        {
            "inputs": [
                {
                    "internalType": "uint256",
                    "name": "",
                    "type": "uint256"
                }
            ],
            "name": "states",
            "outputs": [
                {
                    "internalType": "string",
                    "name": "stateName",
                    "type": "string"
                },
                {
                    "internalType": "uint256",
                    "name": "stateId",
                    "type": "uint256"
                }
            ],
            "stateMutability": "view",
            "type": "function"
        },
        {
            "inputs": [],
            "name": "statesList",
            "outputs": [
                {
                    "components": [
                        {
                            "internalType": "string",
                            "name": "stateName",
                            "type": "string"
                        },
                        {
                            "internalType": "uint256",
                            "name": "stateId",
                            "type": "uint256"
                        }
                    ],
                    "internalType": "struct Election.State[]",
                    "name": "",
                    "type": "tuple[]"
                }
            ],
            "stateMutability": "view",
            "type": "function"
        },
        {
            "inputs": [],
            "name": "timeLeftForVoting",
            "outputs": [
                {
                    "internalType": "uint256",
                    "name": "",
                    "type": "uint256"
                }
            ],
            "stateMutability": "view",
            "type": "function"
        },
        {
            "inputs": [],
            "name": "totalVote",
            "outputs": [
                {
                    "internalType": "uint256",
                    "name": "",
                    "type": "uint256"
                }
            ],
            "stateMutability": "view",
            "type": "function"
        },
        {
            "inputs": [
                {
                    "internalType": "address",
                    "name": "newOwner",
                    "type": "address"
                }
            ],
            "name": "transferOwnership",
            "outputs": [],
            "stateMutability": "nonpayable",
            "type": "function"
        },
        {
            "inputs": [
                {
                    "internalType": "uint256",
                    "name": "_voterId",
                    "type": "uint256"
                },
                {
                    "internalType": "uint256",
                    "name": "_voterState",
                    "type": "uint256"
                },
                {
                    "internalType": "uint256",
                    "name": "_votedPartyId",
                    "type": "uint256"
                }
            ],
            "name": "vote",
            "outputs": [],
            "stateMutability": "nonpayable",
            "type": "function"
        },
        {
            "inputs": [
                {
                    "internalType": "uint256",
                    "name": "",
                    "type": "uint256"
                }
            ],
            "name": "voters",
            "outputs": [
                {
                    "internalType": "bool",
                    "name": "",
                    "type": "bool"
                }
            ],
            "stateMutability": "view",
            "type": "function"
        },
        {
            "inputs": [],
            "name": "votingEndTime",
            "outputs": [
                {
                    "internalType": "uint256",
                    "name": "",
                    "type": "uint256"
                }
            ],
            "stateMutability": "view",
            "type": "function"
        },
        {
            "inputs": [],
            "name": "votingStartTime",
            "outputs": [
                {
                    "internalType": "uint256",
                    "name": "",
                    "type": "uint256"
                }
            ],
            "stateMutability": "view",
            "type": "function"
        }
    ],
    "bytecode": "0x6080604052348015600f57600080fd5b50336000806101000a81548173ffffffffffffffffffffffffffffffffffffffff021916908373ffffffffffffffffffffffffffffffffffffffff160217905550613c698061005f6000396000f3fe608060405234801561001057600080fd5b506004361061018e5760003560e01c8063700b440e116100de578063cff27e9011610097578063f1cea4c711610071578063f1cea4c7146104b1578063f2fde38b146104cf578063fa7f1bae146104eb578063fcdc854e146105095761018e565b8063cff27e9014610445578063da58c7d914610463578063eafcdd3f146104935761018e565b8063700b440e1461038457806370651a18146103a057806376290dd2146103d35780638a6655d6146103ef578063a0355eca1461040b578063bd3f9659146104275761018e565b80633d5431521161014b5780634f6c90cf116101255780634f6c90cf14610300578063523b062014610330578063597f95091461034c5780635c060b79146103685761018e565b80633d54315214610282578063463d001f146102a057806347982cdf146102d05761018e565b8063017a91051461019357806308f64ffe146101c45780631ea736e0146101e25780632019a60814610200578063257da3ef1461021e578063383844541461024e575b600080fd5b6101ad60048036038101906101a8919061270a565b610525565b6040516101bb9291906127d6565b60405180910390f35b6101cc6105d1565b6040516101d99190612806565b60405180910390f35b6101ea61064e565b6040516101f79190612806565b60405180910390f35b610208610654565b6040516102159190612806565b60405180910390f35b6102386004803603810190610233919061270a565b61065a565b6040516102459190612806565b60405180910390f35b61026860048036038101906102639190612821565b61067e565b604051610279959493929190612961565b60405180910390f35b61028a6109b9565b6040516102979190612acf565b60405180910390f35b6102ba60048036038101906102b59190612821565b610b33565b6040516102c79190612806565b60405180910390f35b6102ea60048036038101906102e5919061270a565b610b64565b6040516102f79190612806565b60405180910390f35b61031a6004803603810190610315919061270a565b610b88565b6040516103279190612806565b60405180910390f35b61034a60048036038101906103459190612c26565b610bac565b005b6103666004803603810190610361919061270a565b6110fa565b005b610382600480360381019061037d9190612cc5565b6111b9565b005b61039e6004803603810190610399919061270a565b61135c565b005b6103ba60048036038101906103b5919061270a565b611433565b6040516103ca9493929190612d21565b60405180910390f35b6103ed60048036038101906103e89190612d74565b611573565b005b61040960048036038101906104049190612dff565b611744565b005b61042560048036038101906104209190612821565b6119ae565b005b61042f611b0b565b60405161043c9190612f7e565b60405180910390f35b61044d611d21565b60405161045a9190612806565b60405180910390f35b61047d6004803603810190610478919061270a565b611d9e565b60405161048a9190612fbb565b60405180910390f35b61049b611dbe565b6040516104a89190613123565b60405180910390f35b6104b96122f1565b6040516104c69190612806565b60405180910390f35b6104e960048036038101906104e491906131a3565b6122f7565b005b6104f36123c8565b6040516105009190612fbb565b60405180910390f35b610523600480360381019061051e9190612821565b6124af565b005b6005602052806000526040600020600091509050806000018054610548906131ff565b80601f0160208091040260200160405190810160405280929190818152602001828054610574906131ff565b80156105c15780601f10610596576101008083540402835291602001916105c1565b820191906000526020600020905b8154815290600101906020018083116105a457829003601f168201915b5050505050908060010154905082565b600080600154141580156105e85750600060025414155b610627576040517f08c379a000000000000000000000000000000000000000000000000000000000815260040161061e9061327c565b60405180910390fd5b60015442111561063a576000905061064b565b4260015461064891906132cb565b90505b90565b60025481565b60015481565b6009818154811061066a57600080fd5b906000526020600020016000915090505481565b6007602052816000526040600020602052806000526040600020600091509150508060000180546106ae906131ff565b80601f01602080910402602001604051908101604052809291908181526020018280546106da906131ff565b80156107275780601f106106fc57610100808354040283529160200191610727565b820191906000526020600020905b81548152906001019060200180831161070a57829003601f168201915b50505050509080600101805461073c906131ff565b80601f0160208091040260200160405190810160405280929190818152602001828054610768906131ff565b80156107b55780601f1061078a576101008083540402835291602001916107b5565b820191906000526020600020905b81548152906001019060200180831161079857829003601f168201915b505050505090806002016040518060800160405290816000820180546107da906131ff565b80601f0160208091040260200160405190810160405280929190818152602001828054610806906131ff565b80156108535780601f1061082857610100808354040283529160200191610853565b820191906000526020600020905b81548152906001019060200180831161083657829003601f168201915b5050505050815260200160018201805461086c906131ff565b80601f0160208091040260200160405190810160405280929190818152602001828054610898906131ff565b80156108e55780601f106108ba576101008083540402835291602001916108e5565b820191906000526020600020905b8154815290600101906020018083116108c857829003601f168201915b50505050508152602001600282015481526020016003820154815250509080600601604051806040016040529081600082018054610922906131ff565b80601f016020809104026020016040519081016040528092919081815260200182805461094e906131ff565b801561099b5780601f106109705761010080835404028352916020019161099b565b820191906000526020600020905b81548152906001019060200180831161097e57829003601f168201915b50505050508152602001600182015481525050908060080154905085565b6060600060098054905067ffffffffffffffff8111156109dc576109db612afb565b5b604051908082528060200260200182016040528015610a1557816020015b610a026125e6565b8152602001906001900390816109fa5790505b50905060005b600980549050811015610b2b576005600060098381548110610a4057610a3f6132ff565b5b90600052602060002001548152602001908152602001600020604051806040016040529081600082018054610a74906131ff565b80601f0160208091040260200160405190810160405280929190818152602001828054610aa0906131ff565b8015610aed5780601f10610ac257610100808354040283529160200191610aed565b820191906000526020600020905b815481529060010190602001808311610ad057829003601f168201915b50505050508152602001600182015481525050828281518110610b1357610b126132ff565b5b60200260200101819052508080600101915050610a1b565b508091505090565b600b6020528160005260406000208181548110610b4f57600080fd5b90600052602060002001600091509150505481565b600a8181548110610b7457600080fd5b906000526020600020016000915090505481565b60088181548110610b9857600080fd5b906000526020600020016000915090505481565b60008054906101000a900473ffffffffffffffffffffffffffffffffffffffff1673ffffffffffffffffffffffffffffffffffffffff163373ffffffffffffffffffffffffffffffffffffffff1614610c3a576040517f08c379a0000000000000000000000000000000000000000000000000000000008152600401610c319061337a565b60405180910390fd5b6000600560008381526020019081526020016000206000018054610c5d906131ff565b905003610c9f576040517f08c379a0000000000000000000000000000000000000000000000000000000008152600401610c96906133e6565b60405180910390fd5b6000600460008481526020019081526020016000206000018054610cc2906131ff565b905003610d04576040517f08c379a0000000000000000000000000000000000000000000000000000000008152600401610cfb90613452565b60405180910390fd5b6040518060a0016040528085815260200184815260200160046000858152602001908152602001600020604051806080016040529081600082018054610d49906131ff565b80601f0160208091040260200160405190810160405280929190818152602001828054610d75906131ff565b8015610dc25780601f10610d9757610100808354040283529160200191610dc2565b820191906000526020600020905b815481529060010190602001808311610da557829003601f168201915b50505050508152602001600182018054610ddb906131ff565b80601f0160208091040260200160405190810160405280929190818152602001828054610e07906131ff565b8015610e545780601f10610e2957610100808354040283529160200191610e54565b820191906000526020600020905b815481529060010190602001808311610e3757829003601f168201915b5050505050815260200160028201548152602001600382015481525050815260200160056000848152602001908152602001600020604051806040016040529081600082018054610ea4906131ff565b80601f0160208091040260200160405190810160405280929190818152602001828054610ed0906131ff565b8015610f1d5780601f10610ef257610100808354040283529160200191610f1d565b820191906000526020600020905b815481529060010190602001808311610f0057829003601f168201915b50505050508152602001600182015481525050815260200160008152506007600083815260200190815260200160002060008481526020019081526020016000206000820151816000019081610f73919061361e565b506020820151816001019081610f89919061361e565b506040820151816002016000820151816000019081610fa8919061361e565b506020820151816001019081610fbe919061361e565b50604082015181600201556060820151816003015550506060820151816006016000820151816000019081610ff3919061361e565b50602082015181600101555050608082015181600801559050506000600b6000838152602001908152602001600020805490500361105557600a8190806001815401808255809150506001900390600052602060002001600090919091909150555b600b60008281526020019081526020016000208290806001815401808255809150506001900390600052602060002001600090919091909150557fdae1a967c76435f598df885d31e5056101e14f87ceaea187890b77eac5adee746004600084815260200190815260200160002060000160056000848152602001908152602001600020600001866040516110ec93929190613774565b60405180910390a150505050565b60008054906101000a900473ffffffffffffffffffffffffffffffffffffffff1673ffffffffffffffffffffffffffffffffffffffff163373ffffffffffffffffffffffffffffffffffffffff1614611188576040517f08c379a000000000000000000000000000000000000000000000000000000000815260040161117f9061337a565b60405180910390fd5b60056000828152602001908152602001600020600080820160006111ac9190612600565b6001820160009055505050565b60008054906101000a900473ffffffffffffffffffffffffffffffffffffffff1673ffffffffffffffffffffffffffffffffffffffff163373ffffffffffffffffffffffffffffffffffffffff1614611247576040517f08c379a000000000000000000000000000000000000000000000000000000000815260040161123e9061337a565b60405180910390fd5b600060056000838152602001908152602001600020600001805461126a906131ff565b9050146112ac576040517f08c379a00000000000000000000000000000000000000000000000000000000081526004016112a39061380c565b60405180910390fd5b6040518060400160405280838152602001828152506005600083815260200190815260200160002060008201518160000190816112e9919061361e565b50602082015181600101559050506009819080600181540180825580915050600190039060005260206000200160009091909190915055807faadc2cb898f9a2188d51488b9e24dfa12e85a315c886710a0d2b326f0b06d8cf83604051611350919061382c565b60405180910390a25050565b60008054906101000a900473ffffffffffffffffffffffffffffffffffffffff1673ffffffffffffffffffffffffffffffffffffffff163373ffffffffffffffffffffffffffffffffffffffff16146113ea576040517f08c379a00000000000000000000000000000000000000000000000000000000081526004016113e19061337a565b60405180910390fd5b600460008281526020019081526020016000206000808201600061140e9190612600565b60018201600061141e9190612600565b60028201600090556003820160009055505050565b6004602052806000526040600020600091509050806000018054611456906131ff565b80601f0160208091040260200160405190810160405280929190818152602001828054611482906131ff565b80156114cf5780601f106114a4576101008083540402835291602001916114cf565b820191906000526020600020905b8154815290600101906020018083116114b257829003601f168201915b5050505050908060010180546114e4906131ff565b80601f0160208091040260200160405190810160405280929190818152602001828054611510906131ff565b801561155d5780601f106115325761010080835404028352916020019161155d565b820191906000526020600020905b81548152906001019060200180831161154057829003601f168201915b5050505050908060020154908060030154905084565b60008054906101000a900473ffffffffffffffffffffffffffffffffffffffff1673ffffffffffffffffffffffffffffffffffffffff163373ffffffffffffffffffffffffffffffffffffffff1614611601576040517f08c379a00000000000000000000000000000000000000000000000000000000081526004016115f89061337a565b60405180910390fd5b6000600460008381526020019081526020016000206000018054611624906131ff565b905014611666576040517f08c379a000000000000000000000000000000000000000000000000000000000815260040161165d9061389a565b60405180910390fd5b604051806080016040528084815260200183815260200182815260200160008152506004600083815260200190815260200160002060008201518160000190816116b0919061361e565b5060208201518160010190816116c6919061361e565b5060408201518160020155606082015181600301559050506008819080600181540180825580915050600190039060005260206000200160009091909190915055807f54e9cb5ebe49e5aa1476cef7c5abac9af1cffc245b2a6403e531976361e3d59a84604051611737919061382c565b60405180910390a2505050565b6006600084815260200190815260200160002060009054906101000a900460ff16156117a5576040517f08c379a000000000000000000000000000000000000000000000000000000000815260040161179c90613906565b60405180910390fd5b60006005600084815260200190815260200160002060000180546117c8906131ff565b90500361180a576040517f08c379a0000000000000000000000000000000000000000000000000000000008152600401611801906133e6565b60405180910390fd5b600060046000838152602001908152602001600020600001805461182d906131ff565b90500361186f576040517f08c379a000000000000000000000000000000000000000000000000000000000815260040161186690613452565b60405180910390fd5b600060076000848152602001908152602001600020600083815260200190815260200160002060000180546118a3906131ff565b9050036118e5576040517f08c379a00000000000000000000000000000000000000000000000000000000081526004016118dc90613998565b60405180910390fd5b600760008381526020019081526020016000206000828152602001908152602001600020600801600081548092919061191d906139b8565b9190505550600460008281526020019081526020016000206003016000815480929190611949906139b8565b919050555060016006600085815260200190815260200160002060006101000a81548160ff0219169083151502179055508082847f24930ecca7f60d4736cd965cb5522694ea4b32308405d3f88fea2f59eff63caa60405160405180910390a4505050565b60008054906101000a900473ffffffffffffffffffffffffffffffffffffffff1673ffffffffffffffffffffffffffffffffffffffff163373ffffffffffffffffffffffffffffffffffffffff1614611a3c576040517f08c379a0000000000000000000000000000000000000000000000000000000008152600401611a339061337a565b60405180910390fd5b428211611a7e576040517f08c379a0000000000000000000000000000000000000000000000000000000008152600401611a7590613a4c565b60405180910390fd5b818111611ac0576040517f08c379a0000000000000000000000000000000000000000000000000000000008152600401611ab790613ade565b60405180910390fd5b81600181905550806002819055507f9160758ad24f87673a8c4eebb5b93702ffbcd3115c965f0e772f5a9922247f808282604051611aff929190613afe565b60405180910390a15050565b6060600060088054905067ffffffffffffffff811115611b2e57611b2d612afb565b5b604051908082528060200260200182016040528015611b6757816020015b611b54612640565b815260200190600190039081611b4c5790505b50905060005b600880549050811015611d19576004600060088381548110611b9257611b916132ff565b5b90600052602060002001548152602001908152602001600020604051806080016040529081600082018054611bc6906131ff565b80601f0160208091040260200160405190810160405280929190818152602001828054611bf2906131ff565b8015611c3f5780601f10611c1457610100808354040283529160200191611c3f565b820191906000526020600020905b815481529060010190602001808311611c2257829003601f168201915b50505050508152602001600182018054611c58906131ff565b80601f0160208091040260200160405190810160405280929190818152602001828054611c84906131ff565b8015611cd15780601f10611ca657610100808354040283529160200191611cd1565b820191906000526020600020905b815481529060010190602001808311611cb457829003601f168201915b5050505050815260200160028201548152602001600382015481525050828281518110611d0157611d006132ff565b5b60200260200101819052508080600101915050611b6d565b508091505090565b60008060015414158015611d385750600060025414155b611d77576040517f08c379a0000000000000000000000000000000000000000000000000000000008152600401611d6e9061327c565b60405180910390fd5b600254421115611d8a5760009050611d9b565b42600254611d9891906132cb565b90505b90565b60066020528060005260406000206000915054906101000a900460ff1681565b60606000805b600a80549050811015611e26576000600a8281548110611de757611de66132ff565b5b90600052602060002001549050600b60008281526020019081526020016000208054905083611e169190613b27565b9250508080600101915050611dc4565b5060008167ffffffffffffffff811115611e4357611e42612afb565b5b604051908082528060200260200182016040528015611e7c57816020015b611e69612668565b815260200190600190039081611e615790505b5090506000805b600a805490508110156122e7576000600a8281548110611ea657611ea56132ff565b5b906000526020600020015490506000600b6000838152602001908152602001600020805480602002602001604051908101604052809291908181526020018280548015611f1257602002820191906000526020600020905b815481526020019060010190808311611efe575b5050505050905060005b81518110156122d7576000828281518110611f3a57611f396132ff565b5b602002602001015190506007600085815260200190815260200160002060008281526020019081526020016000206040518060a0016040529081600082018054611f83906131ff565b80601f0160208091040260200160405190810160405280929190818152602001828054611faf906131ff565b8015611ffc5780601f10611fd157610100808354040283529160200191611ffc565b820191906000526020600020905b815481529060010190602001808311611fdf57829003601f168201915b50505050508152602001600182018054612015906131ff565b80601f0160208091040260200160405190810160405280929190818152602001828054612041906131ff565b801561208e5780601f106120635761010080835404028352916020019161208e565b820191906000526020600020905b81548152906001019060200180831161207157829003601f168201915b50505050508152602001600282016040518060800160405290816000820180546120b7906131ff565b80601f01602080910402602001604051908101604052809291908181526020018280546120e3906131ff565b80156121305780601f1061210557610100808354040283529160200191612130565b820191906000526020600020905b81548152906001019060200180831161211357829003601f168201915b50505050508152602001600182018054612149906131ff565b80601f0160208091040260200160405190810160405280929190818152602001828054612175906131ff565b80156121c25780601f10612197576101008083540402835291602001916121c2565b820191906000526020600020905b8154815290600101906020018083116121a557829003601f168201915b5050505050815260200160028201548152602001600382015481525050815260200160068201604051806040016040529081600082018054612203906131ff565b80601f016020809104026020016040519081016040528092919081815260200182805461222f906131ff565b801561227c5780601f106122515761010080835404028352916020019161227c565b820191906000526020600020905b81548152906001019060200180831161225f57829003601f168201915b5050505050815260200160018201548152505081526020016008820154815250508787815181106122b0576122af6132ff565b5b602002602001018190525085806122c6906139b8565b965050508080600101915050611f1c565b5050508080600101915050611e83565b5081935050505090565b60035481565b60008054906101000a900473ffffffffffffffffffffffffffffffffffffffff1673ffffffffffffffffffffffffffffffffffffffff163373ffffffffffffffffffffffffffffffffffffffff1614612385576040517f08c379a000000000000000000000000000000000000000000000000000000000815260040161237c9061337a565b60405180910390fd5b806000806101000a81548173ffffffffffffffffffffffffffffffffffffffff021916908373ffffffffffffffffffffffffffffffffffffffff16021790555050565b600080600154141580156123df5750600060025414155b61241e576040517f08c379a00000000000000000000000000000000000000000000000000000000081526004016124159061327c565b60405180910390fd5b600154421015612463576040517f08c379a000000000000000000000000000000000000000000000000000000000815260040161245a90613ba7565b60405180910390fd5b6002544211156124a8576040517f08c379a000000000000000000000000000000000000000000000000000000000815260040161249f90613c13565b60405180910390fd5b6001905090565b60008054906101000a900473ffffffffffffffffffffffffffffffffffffffff1673ffffffffffffffffffffffffffffffffffffffff163373ffffffffffffffffffffffffffffffffffffffff161461253d576040517f08c379a00000000000000000000000000000000000000000000000000000000081526004016125349061337a565b60405180910390fd5b600760008381526020019081526020016000206000828152602001908152602001600020600080820160006125729190612600565b6001820160006125829190612600565b60028201600080820160006125979190612600565b6001820160006125a79190612600565b60028201600090556003820160009055505060068201600080820160006125ce9190612600565b60018201600090555050600882016000905550505050565b604051806040016040528060608152602001600081525090565b50805461260c906131ff565b6000825580601f1061261e575061263d565b601f01602090049060005260206000209081019061263c91906126a3565b5b50565b6040518060800160405280606081526020016060815260200160008152602001600081525090565b6040518060a001604052806060815260200160608152602001612689612640565b81526020016126966125e6565b8152602001600081525090565b5b808211156126bc5760008160009055506001016126a4565b5090565b6000604051905090565b600080fd5b600080fd5b6000819050919050565b6126e7816126d4565b81146126f257600080fd5b50565b600081359050612704816126de565b92915050565b6000602082840312156127205761271f6126ca565b5b600061272e848285016126f5565b91505092915050565b600081519050919050565b600082825260208201905092915050565b60005b83811015612771578082015181840152602081019050612756565b60008484015250505050565b6000601f19601f8301169050919050565b600061279982612737565b6127a38185612742565b93506127b3818560208601612753565b6127bc8161277d565b840191505092915050565b6127d0816126d4565b82525050565b600060408201905081810360008301526127f0818561278e565b90506127ff60208301846127c7565b9392505050565b600060208201905061281b60008301846127c7565b92915050565b60008060408385031215612838576128376126ca565b5b6000612846858286016126f5565b9250506020612857858286016126f5565b9150509250929050565b600082825260208201905092915050565b600061287d82612737565b6128878185612861565b9350612897818560208601612753565b6128a08161277d565b840191505092915050565b6128b4816126d4565b82525050565b600060808301600083015184820360008601526128d78282612872565b915050602083015184820360208601526128f18282612872565b915050604083015161290660408601826128ab565b50606083015161291960608601826128ab565b508091505092915050565b600060408301600083015184820360008601526129418282612872565b915050602083015161295660208601826128ab565b508091505092915050565b600060a082019050818103600083015261297b818861278e565b9050818103602083015261298f818761278e565b905081810360408301526129a381866128ba565b905081810360608301526129b78185612924565b90506129c660808301846127c7565b9695505050505050565b600081519050919050565b600082825260208201905092915050565b6000819050602082019050919050565b60006040830160008301518482036000860152612a198282612872565b9150506020830151612a2e60208601826128ab565b508091505092915050565b6000612a4583836129fc565b905092915050565b6000602082019050919050565b6000612a65826129d0565b612a6f81856129db565b935083602082028501612a81856129ec565b8060005b85811015612abd5784840389528151612a9e8582612a39565b9450612aa983612a4d565b925060208a01995050600181019050612a85565b50829750879550505050505092915050565b60006020820190508181036000830152612ae98184612a5a565b905092915050565b600080fd5b600080fd5b7f4e487b7100000000000000000000000000000000000000000000000000000000600052604160045260246000fd5b612b338261277d565b810181811067ffffffffffffffff82111715612b5257612b51612afb565b5b80604052505050565b6000612b656126c0565b9050612b718282612b2a565b919050565b600067ffffffffffffffff821115612b9157612b90612afb565b5b612b9a8261277d565b9050602081019050919050565b82818337600083830152505050565b6000612bc9612bc484612b76565b612b5b565b905082815260208101848484011115612be557612be4612af6565b5b612bf0848285612ba7565b509392505050565b600082601f830112612c0d57612c0c612af1565b5b8135612c1d848260208601612bb6565b91505092915050565b60008060008060808587031215612c4057612c3f6126ca565b5b600085013567ffffffffffffffff811115612c5e57612c5d6126cf565b5b612c6a87828801612bf8565b945050602085013567ffffffffffffffff811115612c8b57612c8a6126cf565b5b612c9787828801612bf8565b9350506040612ca8878288016126f5565b9250506060612cb9878288016126f5565b91505092959194509250565b60008060408385031215612cdc57612cdb6126ca565b5b600083013567ffffffffffffffff811115612cfa57612cf96126cf565b5b612d0685828601612bf8565b9250506020612d17858286016126f5565b9150509250929050565b60006080820190508181036000830152612d3b818761278e565b90508181036020830152612d4f818661278e565b9050612d5e60408301856127c7565b612d6b60608301846127c7565b95945050505050565b600080600060608486031215612d8d57612d8c6126ca565b5b600084013567ffffffffffffffff811115612dab57612daa6126cf565b5b612db786828701612bf8565b935050602084013567ffffffffffffffff811115612dd857612dd76126cf565b5b612de486828701612bf8565b9250506040612df5868287016126f5565b9150509250925092565b600080600060608486031215612e1857612e176126ca565b5b6000612e26868287016126f5565b9350506020612e37868287016126f5565b9250506040612e48868287016126f5565b9150509250925092565b600081519050919050565b600082825260208201905092915050565b6000819050602082019050919050565b60006080830160008301518482036000860152612e9b8282612872565b91505060208301518482036020860152612eb58282612872565b9150506040830151612eca60408601826128ab565b506060830151612edd60608601826128ab565b508091505092915050565b6000612ef48383612e7e565b905092915050565b6000602082019050919050565b6000612f1482612e52565b612f1e8185612e5d565b935083602082028501612f3085612e6e565b8060005b85811015612f6c5784840389528151612f4d8582612ee8565b9450612f5883612efc565b925060208a01995050600181019050612f34565b50829750879550505050505092915050565b60006020820190508181036000830152612f988184612f09565b905092915050565b60008115159050919050565b612fb581612fa0565b82525050565b6000602082019050612fd06000830184612fac565b92915050565b600081519050919050565b600082825260208201905092915050565b6000819050602082019050919050565b600060a083016000830151848203600086015261301f8282612872565b915050602083015184820360208601526130398282612872565b915050604083015184820360408601526130538282612e7e565b9150506060830151848203606086015261306d82826129fc565b915050608083015161308260808601826128ab565b508091505092915050565b60006130998383613002565b905092915050565b6000602082019050919050565b60006130b982612fd6565b6130c38185612fe1565b9350836020820285016130d585612ff2565b8060005b8581101561311157848403895281516130f2858261308d565b94506130fd836130a1565b925060208a019950506001810190506130d9565b50829750879550505050505092915050565b6000602082019050818103600083015261313d81846130ae565b905092915050565b600073ffffffffffffffffffffffffffffffffffffffff82169050919050565b600061317082613145565b9050919050565b61318081613165565b811461318b57600080fd5b50565b60008135905061319d81613177565b92915050565b6000602082840312156131b9576131b86126ca565b5b60006131c78482850161318e565b91505092915050565b7f4e487b7100000000000000000000000000000000000000000000000000000000600052602260045260246000fd5b6000600282049050600182168061321757607f821691505b60208210810361322a576132296131d0565b5b50919050565b7f566f74696e672074696d657320617265206e6f74207365740000000000000000600082015250565b6000613266601883612742565b915061327182613230565b602082019050919050565b6000602082019050818103600083015261329581613259565b9050919050565b7f4e487b7100000000000000000000000000000000000000000000000000000000600052601160045260246000fd5b60006132d6826126d4565b91506132e1836126d4565b92508282039050818111156132f9576132f861329c565b5b92915050565b7f4e487b7100000000000000000000000000000000000000000000000000000000600052603260045260246000fd5b7f4e6f7420617574686f72697a6564000000000000000000000000000000000000600082015250565b6000613364600e83612742565b915061336f8261332e565b602082019050919050565b6000602082019050818103600083015261339381613357565b9050919050565b7f537461746520646f6573206e6f74206578697374000000000000000000000000600082015250565b60006133d0601483612742565b91506133db8261339a565b602082019050919050565b600060208201905081810360008301526133ff816133c3565b9050919050565b7f506172747920646f6573206e6f74206578697374000000000000000000000000600082015250565b600061343c601483612742565b915061344782613406565b602082019050919050565b6000602082019050818103600083015261346b8161342f565b9050919050565b60008190508160005260206000209050919050565b60006020601f8301049050919050565b600082821b905092915050565b6000600883026134d47fffffffffffffffffffffffffffffffffffffffffffffffffffffffffffffffff82613497565b6134de8683613497565b95508019841693508086168417925050509392505050565b6000819050919050565b600061351b613516613511846126d4565b6134f6565b6126d4565b9050919050565b6000819050919050565b61353583613500565b61354961354182613522565b8484546134a4565b825550505050565b600090565b61355e613551565b61356981848461352c565b505050565b5b8181101561358d57613582600082613556565b60018101905061356f565b5050565b601f8211156135d2576135a381613472565b6135ac84613487565b810160208510156135bb578190505b6135cf6135c785613487565b83018261356e565b50505b505050565b600082821c905092915050565b60006135f5600019846008026135d7565b1980831691505092915050565b600061360e83836135e4565b9150826002028217905092915050565b61362782612737565b67ffffffffffffffff8111156136405761363f612afb565b5b61364a82546131ff565b613655828285613591565b600060209050601f8311600181146136885760008415613676578287015190505b6136808582613602565b8655506136e8565b601f19841661369686613472565b60005b828110156136be57848901518255600182019150602085019450602081019050613699565b868310156136db57848901516136d7601f8916826135e4565b8355505b6001600288020188555050505b505050505050565b600081546136fd816131ff565b6137078186612742565b9450600182166000811461372257600181146137385761376b565b60ff19831686528115156020028601935061376b565b61374185613472565b60005b8381101561376357815481890152600182019150602081019050613744565b808801955050505b50505092915050565b6000606082019050818103600083015261378e81866136f0565b905081810360208301526137a281856136f0565b905081810360408301526137b6818461278e565b9050949350505050565b7f537461746520494420616c726561647920657869737473000000000000000000600082015250565b60006137f6601783612742565b9150613801826137c0565b602082019050919050565b60006020820190508181036000830152613825816137e9565b9050919050565b60006020820190508181036000830152613846818461278e565b905092915050565b7f506172747920494420616c726561647920657869737473000000000000000000600082015250565b6000613884601783612742565b915061388f8261384e565b602082019050919050565b600060208201905081810360008301526138b381613877565b9050919050565b7f596f75206861766520616c726561647920766f7465642e000000000000000000600082015250565b60006138f0601783612742565b91506138fb826138ba565b602082019050919050565b6000602082019050818103600083015261391f816138e3565b9050919050565b7f4e6f20726570726573656e74617469766520666f72207468697320706172747960008201527f20696e2074686973207374617465000000000000000000000000000000000000602082015250565b6000613982602e83612742565b915061398d82613926565b604082019050919050565b600060208201905081810360008301526139b181613975565b9050919050565b60006139c3826126d4565b91507fffffffffffffffffffffffffffffffffffffffffffffffffffffffffffffffff82036139f5576139f461329c565b5b600182019050919050565b7f53746172742074696d65206d75737420626520696e2066757475726500000000600082015250565b6000613a36601c83612742565b9150613a4182613a00565b602082019050919050565b60006020820190508181036000830152613a6581613a29565b9050919050565b7f456e642074696d65206d7573742062652061667465722073746172742074696d60008201527f6500000000000000000000000000000000000000000000000000000000000000602082015250565b6000613ac8602183612742565b9150613ad382613a6c565b604082019050919050565b60006020820190508181036000830152613af781613abb565b9050919050565b6000604082019050613b1360008301856127c7565b613b2060208301846127c7565b9392505050565b6000613b32826126d4565b9150613b3d836126d4565b9250828201905080821115613b5557613b5461329c565b5b92915050565b7f566f74696e67206861736e277420737461727465640000000000000000000000600082015250565b6000613b91601583612742565b9150613b9c82613b5b565b602082019050919050565b60006020820190508181036000830152613bc081613b84565b9050919050565b7f566f74696e67206973206f766572000000000000000000000000000000000000600082015250565b6000613bfd600e83612742565b9150613c0882613bc7565b602082019050919050565b60006020820190508181036000830152613c2c81613bf0565b905091905056fea26469706673582212204ff7871451e0df27ee29fcff7ea9c3dd19a7f7b51758bbaaf41170cebb7c541164736f6c634300081c0033",
    "linkReferences": {},
    "deployedLinkReferences": {}
}